:03000000020030CB
:1000300000C2B112007E1200A61200D290010E1270
:1000400000F01200D890011C1200F01200EA120118
:10005000271201301200DE1200FE1200E412010627
:1000600080EFC0E043B0F0440F52B0D2B0C2B0D085
:10007000E0C443B0F0440F52B0D2B0C2B022C2B21A
:10008000C2B1C2B0D2B075B028C2B01200B77428E5
:100090001200C9740C1200C974061200C91200A61D
:1000A00074801200C922C2B274011200C922D2B2F5
:1000B0001200621200C0227E017FFFDFFEDEFA2204
:1000C0007E017FFFDFFEDEFA22C2B2120062120062
:1000D000B72274801200C92274C01200C92274C9E8
:1000E0001200C92274CA1200C92274CB1200C9229C
:1000F000E49360091200AE1200B7A380F322EB1262
:1001000000AE1200B722EC1200AE1200B72220504F
:10011000494F2D4144432D3031202000204144439C
:1001200020692F703D200074481200AE1200B722E3
:100130007580FFD291D29200000000D290000000A2
:10014000C290000030A0FDC291E580D291C292F928
:1001500054F0C44430FA75F03A846006EA2407FB90
:100160008002EAFBE9540F4430FA75F03A846005E6
:04017000EA2407FC7A
:0401740022EAFC225D
:00000001FF
