:03000000020030CB
:100030000012007F1200A51200D190010D1200EFF6
:100040001200D790011C1200EF1200E912012712D2
:1000500001B81201C21200DD1200FD1200E312010C
:100060000580ECC0E043A0F0440F52A0D2A0C2A093
:10007000D0E0C443A0F0440F52A0D2A0C2A022C23C
:10008000A2C2A0D2A075A028C2A01200B6742812E5
:1000900000C8740C1200C874061200C81200A574BF
:1000A000801200C822C2A274011200C822D2A21279
:1000B00000631200BF227E017FFFDFFEDEFA227E98
:1000C000017FFFDFFEDEFA22C2A21200631200B639
:1000D0002274801200C82274C01200C82274C9128F
:1000E00000C82274CA1200C82274CB1200C822E4CD
:1000F0009360091200AD1200B6A380F322EB120048
:10010000AD1200B622EC1200AD1200B6222050490A
:100110004F2D493243414444412020002041444373
:1001200020692F703D200074481200AD1200B622E5
:10013000000022D2803080FD313022C28031302256
:100140003133313B22D28131303133C281313031D0
:100150003B22C28131303133D281313022790833B0
:1001600092813140D9F9D28131303133313030810F
:0D01700004313BD322313BC32279083133E7
:10017D00A28133313BD9F7C322D3223080FB3081AA
:10018D00F874903145315D40047400315D31522277
:10019D00D3223080FB3081F874913145315D4008B8
:1001AD003179F5F0D2813140315222C3318840FB93
:1001BD00319F40F722A9F054F0C44430FA75F03A5B
:1001CD00846006EA2407FB8002EAFBE9540F443001
:0F01DD00FA75F03A846005EA2407FC22EAFC2256
:00000001FF
