:10000000806B000022D2803080FD110222C280115C
:1000100002221105110D22D28111021105C2811196
:1000200002110D22C28111021105D2811102227921
:10003000083392811112D9F9D281110211051102EE
:10004000308104110DD322110DC322D3223080FB45
:100050003081F874901117112F400F7440112F4008
:1000600009EFF4F590EF112F4000112422C37F0017
:10007000114D40F90F114D40F4BFFFF8114D40ED07
:100080007FFF114D1F114D40E4BF00F840DF80DDC0
:00000001FF
