:1000000002017453A00F119311931193119375A0D2
:100010003175A03011931193119375A03175A030F3
:10002000119375A03175A030119375A02175A02092
:10003000119322110374281146740C114674061191
:10004000467480114622F81150E8C41150119322D1
:1000500054F04401F5A054F0F5A02275A0007400FE
:10006000790093B42F012212006E09E90162F811A0
:1000700078E8C4117811932254F04405F5A054F4A3
:10008000F5A02275A00074C011462275A00074016D
:10009000114622D2D47F197E3CDEFEDFFAC2D42282
:1000A0007F6411931193DFFA227580FFC280E5808F
:1000B00054F0B4F03CD280313531353135C281E570
:1000C0008054F0B4F03CD281313531353135C282C3
:1000D000E58054F0B4F03CD282313531353135C24F
:1000E00083E58054F0B4F03CD2833135313531357D
:1000F000229001467E04C3C4134002803DA3DEF873
:1001000080A790014A7E04C3C4134002802CA3DE62
:10011000F8809690014E7E04C3C4134002801BA356
:10012000DEF880859001527E04C3C4134002800A29
:10013000A3DEF801A97BFFDBFE227D0122BD0003C7
:10014000742022E493223031323334353637383953
:1001500041424344454650494F2D345834204B4585
:10016000595041442F4B4559205052455353454413
:10017000203D202F1133118B900156115B1183907C
:100180000165115B7580FF7D0011A9313D116E7411
:0501900010114680F48F
:00000001FF
