:020000000130CD
:1000300075817075A800758920758DFA758BFA43E6
:100040008780759852758840D281120149C205C2D5
:1000500006C207752202740A1204C5D522F890055B
:10006000881204CD9007401204CD1204BDC2E5B43D
:10007000410512015680DCB442051201C180D4B49E
:10008000430512028980CCB4440512020380C4B433
:100090004707C20412036680BAB44807C2041203B9
:1000A0008180B0B44907C20412039C80A6B44A07F9
:1000B000C2041203B7809CB44B07D20412036680BB
:1000C00092B44C081201E81202038087B44D051265
:1000D00003D20153B44E031203F90153D207C205F0
:1000E000C20630801030810DD281120149C28112C6
:1000F000014FC28022D20622C281120149D281C29E
:10010000072275210830E704D2818002C2811201E2
:100110004923C280D521EED281120149C205308126
:1001200002D20512014FC28012014F2275210874BC
:1001300000D281120149A28133C280D521F520006D
:1001400002C281120149C28022D2803080FD220089
:10015000220000000022792E9004DD1204CD12044A
:1001600076F7199004F01204CD120476F719900571
:10017000041204CD120476F7199005161204CD125C
:0F01800004765407F7199005271204CD12047660
:10018F00F71990053A1204CD120476F71990054F1E
:10019F001204CD120476F779281200DC74D0120104
:1001AF00027400120102E712010209B92FF81200BE
:1001BF00F822790890075F1204CD120476F5231206
:1001CF0000DC74D01201027408120102E52312013F
:1001DF000209B940F71200F82279081200DC74D036
:1001EF0012010274081201021201020904B940F847
:1001FF001200F8229007431204CD7930752200C205
:10020F00001200DC74D012010274081201021200F5
:10021F00F81200DC74D1120102E522B43702D200C9
:10022F0012012CF7090522E522B438ED1200F8125D
:10023F0002473098FDC298227930752100900790BF
:10024F001204CD120273E7120495090521742012CE
:10025F0004C5E521B408EF7521009007401204CDC5
:10026F00B968E022E924D812049574201204C574E9
:10027F00201204C574201204C5229007431204CD26
:10028F007928752200C2001200DC74D012010274AA
:10029F00001201021200F81200DC74D1120102E503
:1002AF0022B40702D20012012CF7E522B4000BC2D0
:1002BF0003E730E705D203C2E7F7090522E522B4C9
:1002CF0008DD1200F81202DD3098B5C298229007AF
:0F02DF00311204CD792DE7120495742F1204C546
:1002EE00792CE7120495742F1204C5792EE71204A7
:1002FE009574091204C59007391204CD792AE712B4
:10030E000495743A1204C57929E7120495743A12C9
:10031E0004C57928E7120495221200DC74D012016C
:10032E00027400120102D2001200F81200DC74D125
:10033E0012010212012CC2E7300302D2E7C0E01212
:10034E0000F81200DC74D01201027400120102D007
:10035E00E01201021200F8221200DC74D012010227
:10036E00740712010274903004027480120102129A
:10037E0000F8221200DC74D012010274071201027E
:10038E00749130040274801201021200F8221200DD
:10039E00DC74D0120102740712010274923004024E
:1003AE0074801201021200F8221200DC74D01201C5
:1003BE000274071201027493300402748012010257
:1003CE001200F82279009007BD1204CD120476F5C2
:1003DE00231200DC74A01201027400120102E52344
:1003EE0012010209B940F71200F8229007431204D5
:1003FE00CD7930752200C2001200DC74A012010209
:10040E0074001201021200F81200DC74A112010233
:10041E00E522B43702D20012012CF7090522E5229B
:10042E00B438ED1200F812043D3098FDC2982279CE
:10043E00307521009007901204CDE924D012027677
:07044E00E7120495090521E6
:1004550074201204C5E521B408EF7521009007400A
:100465001204CDB940DD22C282D282120151C2826C
:100475002278001204BD1204C5B40D02E82224D06E
:1004850030E40224F9540F53000FC8C448F880E340
:10049500C0E0C4540F240730E403B4100224F92447
:1004A500301204C5D0E0540F240730E403B4100221
:1004B50024F924301204C5223098FDC298E599220A
:1004C5003099FDC299F59922C0E0E493A3B40003E5
:1004D500D0E0221204C580F20D0A59454152202868
:1004E50030202D20393929203A20000D0A4D4F4E54
:1004F5005448202831202D20313229203A20000D62
:100505000A444159204F46204D4F4E5448203A2029
:10051500000D0A444159204F46205745454B203A86
:1005250020000D0A484F5552202830202D20323307
:1005350029203A20000D0A4D494E555445202830B2
:10054500202D20353929203A20000D0A5345434FE7
:100555004E44202830202D20353929203A20000D01
:100565000A505245535320414E59204B455920546A
:100575004F2053455420544849532054494D452054
:100585000D0A000D0A2A2A2A2A2A2A2A2044594E07
:10059500414C4F4720494E444941204C494D49540F
:1005A5004544202A2A2A2A2A2A2A200D0A0D0A2009
:1005B50044594E412D50494F2D5254432D454550D8
:1005C500524F4D2044454D4F2050524F4752414DBB
:1005D500200D0A0D0A20504C454153452043484FF4
:1005E5004F534520414E204F5054494F4E20544FB4
:1005F50020434F4E54494E5545200D0A2D2D2D2D86
:100605002D2D2D2D2D2D2D2D2D2D2D2D2D2D2D2D15
:100615002D2D2D2D2D2D2D2D2D2D2D2D2D2D2D2D05
:10062500200D0A412E205345542054494D45284D4F
:10063500414E55414C290D0A422E20534554204424
:1006450053313330372052414D200D0A432E20526D
:1006550045414420444154452F54494D450D0A44D4
:100665002E205245414420445331333037205241E6
:100675004D200D0A472E205351572F4F5554204FCB
:100685004E2D31485A200D0A482E205351572F4FD1
:100695005554204F4E2D344B485A0D0A492E2053A0
:1006A50051572F4F5554204F4E2D384B485A200D3A
:1006B5000A4A2E205351572F4F5554204F4E2D3354
:1006C500324B485A0D0A4B2E205351572F4F555434
:1006D500204F46460D0A4C2E20575249544520526C
:1006E500414D20554E495155452050415454455290
:1006F5004E200D0A4D2E205345542041543234438B
:10070500303820524F4D200D0A4E2E20524541447F
:10071500204154323443303820524F4D0D0A455351
:10072500432E20544F205155495420000D44415427
:10073500453A200054494D453A20000D0A000D0A5E
:10074500505245535320414E59204B455920544F43
:100755002052455455524E0D0A000D0A454E54453A
:10076500522054484520425954452056414C554540
:100775002057484943482057494C4C2046494C4C42
:10078500205448452052414D0D0A000D0A4144446C
:100795005220444154410D0A2D2D2D2D2D2D2D2D49
:1007A5002D2D2D2D2D2D2D2D2D2D2D2D2D2D2D2D74
:1007B5002D2D2D2D2D0D0A000D0A454E5445522087
:0D07C50054484520425954452056414C559A
:1007D200452057484943482057494C4C2046494CEC
:1007E2004C203136204259544553204F462054481C
:1007F20045204154323443303820524F4D200D0AA7
:0108020000F5
:00000001FF
