:03000000020030CB
:1000300000C29112006912008F1200BD9000DD1203
:1000400000CF1200C39000EC1200CF80FEC0E0434E
:1000500090F0440F5290D290C290D0E0C44390F000
:10006000440F5290D290C29022C292C290D2907508
:100070009028C2901200A074281200B2740C1200D2
:10008000B274061200B212008F74801200B222C243
:100090009274011200B222D29212004D1200A922D3
:1000A0007E017FFFDFFEDEFA227E647FFFDFFEDE61
:1000B000FA22C292C29112004D1200A02274801244
:1000C00000B22274C01200B22274C91200B222E43B
:1000D0009360091200971200A0A380F322204459D4
:1000E0004E412D50494F2D4C43442000203442496D
:0800F00054204D4F444520004F
:00000001FF
